{
  "abi": [
    {
      "inputs": [
        {
          "internalType": "uint32",
          "name": "id",
          "type": "uint32"
        }
      ],
      "name": "ChooseOffer",
      "outputs": [],
      "stateMutability": "nonpayable",
      "type": "function"
    },
    {
      "inputs": [
        {
          "internalType": "uint32",
          "name": "energy",
          "type": "uint32"
        },
        {
          "internalType": "uint32",
          "name": "price",
          "type": "uint32"
        }
      ],
      "name": "addOffer",
      "outputs": [],
      "stateMutability": "nonpayable",
      "type": "function"
    },
    {
      "inputs": [
        {
          "internalType": "uint32",
          "name": "id",
          "type": "uint32"
        }
      ],
      "name": "confirmTx_B2S",
      "outputs": [],
      "stateMutability": "nonpayable",
      "type": "function"
    },
    {
      "inputs": [
        {
          "internalType": "uint32",
          "name": "id",
          "type": "uint32"
        }
      ],
      "name": "confirmTx_S2B",
      "outputs": [],
      "stateMutability": "nonpayable",
      "type": "function"
    },
    {
      "inputs": [
        {
          "internalType": "uint32",
          "name": "id",
          "type": "uint32"
        }
      ],
      "name": "finalDelivery",
      "outputs": [],
      "stateMutability": "nonpayable",
      "type": "function"
    },
    {
      "inputs": [],
      "name": "listOffers",
      "outputs": [
        {
          "internalType": "uint256[]",
          "name": "",
          "type": "uint256[]"
        }
      ],
      "stateMutability": "view",
      "type": "function"
    },
    {
      "inputs": [],
      "name": "offerID",
      "outputs": [
        {
          "internalType": "uint32",
          "name": "",
          "type": "uint32"
        }
      ],
      "stateMutability": "view",
      "type": "function"
    },
    {
      "inputs": [
        {
          "internalType": "uint256",
          "name": "",
          "type": "uint256"
        }
      ],
      "name": "offers",
      "outputs": [
        {
          "internalType": "uint32",
          "name": "ID",
          "type": "uint32"
        },
        {
          "internalType": "address",
          "name": "seller",
          "type": "address"
        },
        {
          "internalType": "address",
          "name": "buyer",
          "type": "address"
        },
        {
          "internalType": "uint32",
          "name": "energy",
          "type": "uint32"
        },
        {
          "internalType": "uint32",
          "name": "price",
          "type": "uint32"
        },
        {
          "internalType": "uint256",
          "name": "OfferedTime",
          "type": "uint256"
        },
        {
          "internalType": "uint256",
          "name": "S2BPaidTime",
          "type": "uint256"
        },
        {
          "internalType": "bool",
          "name": "choosed",
          "type": "bool"
        },
        {
          "internalType": "bool",
          "name": "confirm_buyer",
          "type": "bool"
        },
        {
          "internalType": "bool",
          "name": "confirm_seller",
          "type": "bool"
        },
        {
          "internalType": "bool",
          "name": "delivered",
          "type": "bool"
        }
      ],
      "stateMutability": "view",
      "type": "function"
    },
    {
      "inputs": [
        {
          "internalType": "uint32",
          "name": "id",
          "type": "uint32"
        }
      ],
      "name": "retreive_final_details",
      "outputs": [
        {
          "components": [
            {
              "internalType": "uint32",
              "name": "ID",
              "type": "uint32"
            },
            {
              "internalType": "address",
              "name": "seller",
              "type": "address"
            },
            {
              "internalType": "address",
              "name": "buyer",
              "type": "address"
            },
            {
              "internalType": "uint32",
              "name": "energy",
              "type": "uint32"
            },
            {
              "internalType": "uint32",
              "name": "price",
              "type": "uint32"
            },
            {
              "internalType": "uint256",
              "name": "OfferedTime",
              "type": "uint256"
            },
            {
              "internalType": "uint256",
              "name": "S2BPaidTime",
              "type": "uint256"
            },
            {
              "internalType": "bool",
              "name": "choosed",
              "type": "bool"
            },
            {
              "internalType": "bool",
              "name": "confirm_buyer",
              "type": "bool"
            },
            {
              "internalType": "bool",
              "name": "confirm_seller",
              "type": "bool"
            },
            {
              "internalType": "bool",
              "name": "delivered",
              "type": "bool"
            }
          ],
          "internalType": "struct EnergyTrade.Offer",
          "name": "",
          "type": "tuple"
        }
      ],
      "stateMutability": "view",
      "type": "function"
    },
    {
      "inputs": [
        {
          "internalType": "uint32",
          "name": "id",
          "type": "uint32"
        }
      ],
      "name": "retreive_offer_by_id",
      "outputs": [
        {
          "internalType": "uint32",
          "name": "",
          "type": "uint32"
        },
        {
          "internalType": "uint32",
          "name": "",
          "type": "uint32"
        }
      ],
      "stateMutability": "view",
      "type": "function"
    }
  ],
  "bytecode": "608060405234801561001057600080fd5b50610a90806100206000396000f3fe608060405234801561001057600080fd5b506004361061009e5760003560e01c80639867200311610066578063986720031461013f578063a614be4f14610152578063aaef9dca14610167578063ebd133da1461017a578063feccc0981461018f5761009e565b80637b2e9740146100a35780637d5c7f63146100cd5780637dc34113146100e25780638a72ea6a146100f55780639020912d1461011f575b600080fd5b6100b66100b136600461079a565b6101a2565b6040516100c49291906109a6565b60405180910390f35b6100e06100db36600461079a565b6101d4565b005b6100e06100f036600461079a565b6101f8565b610108610103366004610782565b61023a565b6040516100c49b9a9998979695949392919061092b565b61013261012d36600461079a565b6102b7565b6040516100c4919061084e565b6100e061014d3660046107bb565b61038a565b61015a610442565b6040516100c4919061091a565b6100e061017536600461079a565b61044e565b610182610478565b6040516100c4919061080a565b6100e061019d36600461079a565b610487565b63ffffffff808216600090815260208190526040902060010154600160a01b8104821691600160c01b90910416915091565b63ffffffff166000908152602081905260409020600401805460ff19166001179055565b63ffffffff16600090815260208190526040902060048101805461ff0019166101001790556001810180546001600160a01b0319163317905542600390910155565b6000602081905290815260409020805460018201546002830154600384015460049094015463ffffffff808516956001600160a01b03640100000000909604861695851694600160a01b8104831694600160c01b9091049092169260ff80821691610100810482169162010000820481169163010000009004168b565b6102bf610712565b5063ffffffff80821660009081526020818152604091829020825161016081018452815480861682526001600160a01b03640100000000909104811693820193909352600182015492831693810193909352600160a01b820484166060840152600160c01b9091049092166080820152600282015460a0820152600382015460c082015260049091015460ff808216151560e084015261010080830482161515908401526201000082048116151561012084015263010000009091041615156101408201525b919050565b6001805463ffffffff9081166000818152602081905260408120805463ffffffff19908116909317640100000000600160c01b0319163364010000000002178155808501805463ffffffff60a01b1916600160a01b898716021763ffffffff60c01b1916600160c01b888716021790554260028201556004810180549093169092558354919392839261041f918491166109d5565b92506101000a81548163ffffffff021916908363ffffffff160217905550505050565b60015463ffffffff1681565b63ffffffff166000908152602081905260409020600401805463ff00000019166301000000179055565b60606104826104af565b905090565b63ffffffff166000908152602081905260409020600401805462ff0000191662010000179055565b6001546060906000906104c99063ffffffff1660036109fd565b63ffffffff1667ffffffffffffffff8111156104f557634e487b7160e01b600052604160045260246000fd5b60405190808252806020026020018201604052801561051e578160200160208202803683370190505b5090506000805b60015463ffffffff16811015610644576000818152602081905260409020600401546301000000900460ff166106325760008181526020819052604090208351829085908590811061058757634e487b7160e01b600052603260045260246000fd5b6020908102919091010152600181810154600160a01b900463ffffffff169085906105b39086906109bd565b815181106105d157634e487b7160e01b600052603260045260246000fd5b60209081029190910101526001810154600160c01b900463ffffffff16846105fa8560026109bd565b8151811061061857634e487b7160e01b600052603260045260246000fd5b602090810291909101015261062e6003846109bd565b9250505b8061063c81610a29565b915050610525565b5060008167ffffffffffffffff81111561066e57634e487b7160e01b600052604160045260246000fd5b604051908082528060200260200182016040528015610697578160200160208202803683370190505b50905060005b8281101561070a578381815181106106c557634e487b7160e01b600052603260045260246000fd5b60200260200101518282815181106106ed57634e487b7160e01b600052603260045260246000fd5b60209081029190910101528061070281610a29565b91505061069d565b509250505090565b6040805161016081018252600080825260208201819052918101829052606081018290526080810182905260a0810182905260c0810182905260e081018290526101008101829052610120810182905261014081019190915290565b803563ffffffff8116811461038557600080fd5b600060208284031215610793578081fd5b5035919050565b6000602082840312156107ab578081fd5b6107b48261076e565b9392505050565b600080604083850312156107cd578081fd5b6107d68361076e565b91506107e46020840161076e565b90509250929050565b6001600160a01b03169052565b15159052565b63ffffffff169052565b6020808252825182820181905260009190848201906040850190845b8181101561084257835183529284019291840191600101610826565b50909695505050505050565b600061016082019050610862828451610800565b602083015161087460208401826107ed565b50604083015161088760408401826107ed565b50606083015161089a6060840182610800565b5060808301516108ad6080840182610800565b5060a083015160a083015260c083015160c083015260e08301516108d460e08401826107fa565b50610100808401516108e8828501826107fa565b5050610120808401516108fd828501826107fa565b505061014080840151610912828501826107fa565b505092915050565b63ffffffff91909116815260200190565b63ffffffff8c811682526001600160a01b038c811660208401528b16604083015289811660608301528816608082015260a0810187905260c0810186905284151560e082015283151561010082015282151561012082015261016081016109966101408301846107fa565b9c9b505050505050505050505050565b63ffffffff92831681529116602082015260400190565b600082198211156109d0576109d0610a44565b500190565b600063ffffffff8083168185168083038211156109f4576109f4610a44565b01949350505050565b600063ffffffff80831681851681830481118215151615610a2057610a20610a44565b02949350505050565b6000600019821415610a3d57610a3d610a44565b5060010190565b634e487b7160e01b600052601160045260246000fdfea2646970667358221220e5eab9e73e3fb61d64d0b956094dd76472c303c312c4d2eb4688ded9341e3a4964736f6c63430008000033",
  "bytecodeSha1": "91bc3800df1f901d00016578190232e0af2c77a3",
  "compiler": {
    "evm_version": "istanbul",
    "optimizer": {
      "enabled": true,
      "runs": 200
    },
    "version": "0.8.0+commit.c7dfd78e"
  },
  "contractName": "EnergyTrade",
  "language": "Solidity",
  "natspec": {
    "kind": "dev",
    "methods": {},
    "version": 1
  },
  "opcodes": "PUSH1 0x80 PUSH1 0x40 MSTORE CALLVALUE DUP1 ISZERO PUSH2 0x10 JUMPI PUSH1 0x0 DUP1 REVERT JUMPDEST POP PUSH1 0x4 CALLDATASIZE LT PUSH2 0x9E JUMPI PUSH1 0x0 CALLDATALOAD PUSH1 0xE0 SHR DUP1 PUSH4 0x98672003 GT PUSH2 0x66 JUMPI DUP1 PUSH4 0x98672003 EQ PUSH2 0x13F JUMPI DUP1 PUSH4 0xA614BE4F EQ PUSH2 0x152 JUMPI DUP1 PUSH4 0xAAEF9DCA EQ PUSH2 0x167 JUMPI DUP1 PUSH4 0xEBD133DA EQ PUSH2 0x17A JUMPI DUP1 PUSH4 0xFECCC098 EQ PUSH2 0x18F JUMPI PUSH2 0x9E JUMP JUMPDEST DUP1 PUSH4 0x7B2E9740 EQ PUSH2 0xA3 JUMPI DUP1 PUSH4 0x7D5C7F63 EQ PUSH2 0xCD JUMPI DUP1 PUSH4 0x7DC34113 EQ PUSH2 0xE2 JUMPI DUP1 PUSH4 0x8A72EA6A EQ PUSH2 0xF5 JUMPI DUP1 PUSH4 0x9020912D EQ PUSH2 0x11F JUMPI JUMPDEST PUSH1 0x0 DUP1 REVERT JUMPDEST PUSH2 0xB6 PUSH2 0xB1 CALLDATASIZE PUSH1 0x4 PUSH2 0x79A JUMP JUMPDEST PUSH2 0x1A2 JUMP JUMPDEST PUSH1 0x40 MLOAD PUSH2 0xC4 SWAP3 SWAP2 SWAP1 PUSH2 0x9A6 JUMP JUMPDEST PUSH1 0x40 MLOAD DUP1 SWAP2 SUB SWAP1 RETURN JUMPDEST PUSH2 0xE0 PUSH2 0xDB CALLDATASIZE PUSH1 0x4 PUSH2 0x79A JUMP JUMPDEST PUSH2 0x1D4 JUMP JUMPDEST STOP JUMPDEST PUSH2 0xE0 PUSH2 0xF0 CALLDATASIZE PUSH1 0x4 PUSH2 0x79A JUMP JUMPDEST PUSH2 0x1F8 JUMP JUMPDEST PUSH2 0x108 PUSH2 0x103 CALLDATASIZE PUSH1 0x4 PUSH2 0x782 JUMP JUMPDEST PUSH2 0x23A JUMP JUMPDEST PUSH1 0x40 MLOAD PUSH2 0xC4 SWAP12 SWAP11 SWAP10 SWAP9 SWAP8 SWAP7 SWAP6 SWAP5 SWAP4 SWAP3 SWAP2 SWAP1 PUSH2 0x92B JUMP JUMPDEST PUSH2 0x132 PUSH2 0x12D CALLDATASIZE PUSH1 0x4 PUSH2 0x79A JUMP JUMPDEST PUSH2 0x2B7 JUMP JUMPDEST PUSH1 0x40 MLOAD PUSH2 0xC4 SWAP2 SWAP1 PUSH2 0x84E JUMP JUMPDEST PUSH2 0xE0 PUSH2 0x14D CALLDATASIZE PUSH1 0x4 PUSH2 0x7BB JUMP JUMPDEST PUSH2 0x38A JUMP JUMPDEST PUSH2 0x15A PUSH2 0x442 JUMP JUMPDEST PUSH1 0x40 MLOAD PUSH2 0xC4 SWAP2 SWAP1 PUSH2 0x91A JUMP JUMPDEST PUSH2 0xE0 PUSH2 0x175 CALLDATASIZE PUSH1 0x4 PUSH2 0x79A JUMP JUMPDEST PUSH2 0x44E JUMP JUMPDEST PUSH2 0x182 PUSH2 0x478 JUMP JUMPDEST PUSH1 0x40 MLOAD PUSH2 0xC4 SWAP2 SWAP1 PUSH2 0x80A JUMP JUMPDEST PUSH2 0xE0 PUSH2 0x19D CALLDATASIZE PUSH1 0x4 PUSH2 0x79A JUMP JUMPDEST PUSH2 0x487 JUMP JUMPDEST PUSH4 0xFFFFFFFF DUP1 DUP3 AND PUSH1 0x0 SWAP1 DUP2 MSTORE PUSH1 0x20 DUP2 SWAP1 MSTORE PUSH1 0x40 SWAP1 KECCAK256 PUSH1 0x1 ADD SLOAD PUSH1 0x1 PUSH1 0xA0 SHL DUP2 DIV DUP3 AND SWAP2 PUSH1 0x1 PUSH1 0xC0 SHL SWAP1 SWAP2 DIV AND SWAP2 POP SWAP2 JUMP JUMPDEST PUSH4 0xFFFFFFFF AND PUSH1 0x0 SWAP1 DUP2 MSTORE PUSH1 0x20 DUP2 SWAP1 MSTORE PUSH1 0x40 SWAP1 KECCAK256 PUSH1 0x4 ADD DUP1 SLOAD PUSH1 0xFF NOT AND PUSH1 0x1 OR SWAP1 SSTORE JUMP JUMPDEST PUSH4 0xFFFFFFFF AND PUSH1 0x0 SWAP1 DUP2 MSTORE PUSH1 0x20 DUP2 SWAP1 MSTORE PUSH1 0x40 SWAP1 KECCAK256 PUSH1 0x4 DUP2 ADD DUP1 SLOAD PUSH2 0xFF00 NOT AND PUSH2 0x100 OR SWAP1 SSTORE PUSH1 0x1 DUP2 ADD DUP1 SLOAD PUSH1 0x1 PUSH1 0x1 PUSH1 0xA0 SHL SUB NOT AND CALLER OR SWAP1 SSTORE TIMESTAMP PUSH1 0x3 SWAP1 SWAP2 ADD SSTORE JUMP JUMPDEST PUSH1 0x0 PUSH1 0x20 DUP2 SWAP1 MSTORE SWAP1 DUP2 MSTORE PUSH1 0x40 SWAP1 KECCAK256 DUP1 SLOAD PUSH1 0x1 DUP3 ADD SLOAD PUSH1 0x2 DUP4 ADD SLOAD PUSH1 0x3 DUP5 ADD SLOAD PUSH1 0x4 SWAP1 SWAP5 ADD SLOAD PUSH4 0xFFFFFFFF DUP1 DUP6 AND SWAP6 PUSH1 0x1 PUSH1 0x1 PUSH1 0xA0 SHL SUB PUSH5 0x100000000 SWAP1 SWAP7 DIV DUP7 AND SWAP6 DUP6 AND SWAP5 PUSH1 0x1 PUSH1 0xA0 SHL DUP2 DIV DUP4 AND SWAP5 PUSH1 0x1 PUSH1 0xC0 SHL SWAP1 SWAP2 DIV SWAP1 SWAP3 AND SWAP3 PUSH1 0xFF DUP1 DUP3 AND SWAP2 PUSH2 0x100 DUP2 DIV DUP3 AND SWAP2 PUSH3 0x10000 DUP3 DIV DUP2 AND SWAP2 PUSH4 0x1000000 SWAP1 DIV AND DUP12 JUMP JUMPDEST PUSH2 0x2BF PUSH2 0x712 JUMP JUMPDEST POP PUSH4 0xFFFFFFFF DUP1 DUP3 AND PUSH1 0x0 SWAP1 DUP2 MSTORE PUSH1 0x20 DUP2 DUP2 MSTORE PUSH1 0x40 SWAP2 DUP3 SWAP1 KECCAK256 DUP3 MLOAD PUSH2 0x160 DUP2 ADD DUP5 MSTORE DUP2 SLOAD DUP1 DUP7 AND DUP3 MSTORE PUSH1 0x1 PUSH1 0x1 PUSH1 0xA0 SHL SUB PUSH5 0x100000000 SWAP1 SWAP2 DIV DUP2 AND SWAP4 DUP3 ADD SWAP4 SWAP1 SWAP4 MSTORE PUSH1 0x1 DUP3 ADD SLOAD SWAP3 DUP4 AND SWAP4 DUP2 ADD SWAP4 SWAP1 SWAP4 MSTORE PUSH1 0x1 PUSH1 0xA0 SHL DUP3 DIV DUP5 AND PUSH1 0x60 DUP5 ADD MSTORE PUSH1 0x1 PUSH1 0xC0 SHL SWAP1 SWAP2 DIV SWAP1 SWAP3 AND PUSH1 0x80 DUP3 ADD MSTORE PUSH1 0x2 DUP3 ADD SLOAD PUSH1 0xA0 DUP3 ADD MSTORE PUSH1 0x3 DUP3 ADD SLOAD PUSH1 0xC0 DUP3 ADD MSTORE PUSH1 0x4 SWAP1 SWAP2 ADD SLOAD PUSH1 0xFF DUP1 DUP3 AND ISZERO ISZERO PUSH1 0xE0 DUP5 ADD MSTORE PUSH2 0x100 DUP1 DUP4 DIV DUP3 AND ISZERO ISZERO SWAP1 DUP5 ADD MSTORE PUSH3 0x10000 DUP3 DIV DUP2 AND ISZERO ISZERO PUSH2 0x120 DUP5 ADD MSTORE PUSH4 0x1000000 SWAP1 SWAP2 DIV AND ISZERO ISZERO PUSH2 0x140 DUP3 ADD MSTORE JUMPDEST SWAP2 SWAP1 POP JUMP JUMPDEST PUSH1 0x1 DUP1 SLOAD PUSH4 0xFFFFFFFF SWAP1 DUP2 AND PUSH1 0x0 DUP2 DUP2 MSTORE PUSH1 0x20 DUP2 SWAP1 MSTORE PUSH1 0x40 DUP2 KECCAK256 DUP1 SLOAD PUSH4 0xFFFFFFFF NOT SWAP1 DUP2 AND SWAP1 SWAP4 OR PUSH5 0x100000000 PUSH1 0x1 PUSH1 0xC0 SHL SUB NOT AND CALLER PUSH5 0x100000000 MUL OR DUP2 SSTORE DUP1 DUP6 ADD DUP1 SLOAD PUSH4 0xFFFFFFFF PUSH1 0xA0 SHL NOT AND PUSH1 0x1 PUSH1 0xA0 SHL DUP10 DUP8 AND MUL OR PUSH4 0xFFFFFFFF PUSH1 0xC0 SHL NOT AND PUSH1 0x1 PUSH1 0xC0 SHL DUP9 DUP8 AND MUL OR SWAP1 SSTORE TIMESTAMP PUSH1 0x2 DUP3 ADD SSTORE PUSH1 0x4 DUP2 ADD DUP1 SLOAD SWAP1 SWAP4 AND SWAP1 SWAP3 SSTORE DUP4 SLOAD SWAP2 SWAP4 SWAP3 DUP4 SWAP3 PUSH2 0x41F SWAP2 DUP5 SWAP2 AND PUSH2 0x9D5 JUMP JUMPDEST SWAP3 POP PUSH2 0x100 EXP DUP2 SLOAD DUP2 PUSH4 0xFFFFFFFF MUL NOT AND SWAP1 DUP4 PUSH4 0xFFFFFFFF AND MUL OR SWAP1 SSTORE POP POP POP POP JUMP JUMPDEST PUSH1 0x1 SLOAD PUSH4 0xFFFFFFFF AND DUP2 JUMP JUMPDEST PUSH4 0xFFFFFFFF AND PUSH1 0x0 SWAP1 DUP2 MSTORE PUSH1 0x20 DUP2 SWAP1 MSTORE PUSH1 0x40 SWAP1 KECCAK256 PUSH1 0x4 ADD DUP1 SLOAD PUSH4 0xFF000000 NOT AND PUSH4 0x1000000 OR SWAP1 SSTORE JUMP JUMPDEST PUSH1 0x60 PUSH2 0x482 PUSH2 0x4AF JUMP JUMPDEST SWAP1 POP SWAP1 JUMP JUMPDEST PUSH4 0xFFFFFFFF AND PUSH1 0x0 SWAP1 DUP2 MSTORE PUSH1 0x20 DUP2 SWAP1 MSTORE PUSH1 0x40 SWAP1 KECCAK256 PUSH1 0x4 ADD DUP1 SLOAD PUSH3 0xFF0000 NOT AND PUSH3 0x10000 OR SWAP1 SSTORE JUMP JUMPDEST PUSH1 0x1 SLOAD PUSH1 0x60 SWAP1 PUSH1 0x0 SWAP1 PUSH2 0x4C9 SWAP1 PUSH4 0xFFFFFFFF AND PUSH1 0x3 PUSH2 0x9FD JUMP JUMPDEST PUSH4 0xFFFFFFFF AND PUSH8 0xFFFFFFFFFFFFFFFF DUP2 GT ISZERO PUSH2 0x4F5 JUMPI PUSH4 0x4E487B71 PUSH1 0xE0 SHL PUSH1 0x0 MSTORE PUSH1 0x41 PUSH1 0x4 MSTORE PUSH1 0x24 PUSH1 0x0 REVERT JUMPDEST PUSH1 0x40 MLOAD SWAP1 DUP1 DUP3 MSTORE DUP1 PUSH1 0x20 MUL PUSH1 0x20 ADD DUP3 ADD PUSH1 0x40 MSTORE DUP1 ISZERO PUSH2 0x51E JUMPI DUP2 PUSH1 0x20 ADD PUSH1 0x20 DUP3 MUL DUP1 CALLDATASIZE DUP4 CALLDATACOPY ADD SWAP1 POP JUMPDEST POP SWAP1 POP PUSH1 0x0 DUP1 JUMPDEST PUSH1 0x1 SLOAD PUSH4 0xFFFFFFFF AND DUP2 LT ISZERO PUSH2 0x644 JUMPI PUSH1 0x0 DUP2 DUP2 MSTORE PUSH1 0x20 DUP2 SWAP1 MSTORE PUSH1 0x40 SWAP1 KECCAK256 PUSH1 0x4 ADD SLOAD PUSH4 0x1000000 SWAP1 DIV PUSH1 0xFF AND PUSH2 0x632 JUMPI PUSH1 0x0 DUP2 DUP2 MSTORE PUSH1 0x20 DUP2 SWAP1 MSTORE PUSH1 0x40 SWAP1 KECCAK256 DUP4 MLOAD DUP3 SWAP1 DUP6 SWAP1 DUP6 SWAP1 DUP2 LT PUSH2 0x587 JUMPI PUSH4 0x4E487B71 PUSH1 0xE0 SHL PUSH1 0x0 MSTORE PUSH1 0x32 PUSH1 0x4 MSTORE PUSH1 0x24 PUSH1 0x0 REVERT JUMPDEST PUSH1 0x20 SWAP1 DUP2 MUL SWAP2 SWAP1 SWAP2 ADD ADD MSTORE PUSH1 0x1 DUP2 DUP2 ADD SLOAD PUSH1 0x1 PUSH1 0xA0 SHL SWAP1 DIV PUSH4 0xFFFFFFFF AND SWAP1 DUP6 SWAP1 PUSH2 0x5B3 SWAP1 DUP7 SWAP1 PUSH2 0x9BD JUMP JUMPDEST DUP2 MLOAD DUP2 LT PUSH2 0x5D1 JUMPI PUSH4 0x4E487B71 PUSH1 0xE0 SHL PUSH1 0x0 MSTORE PUSH1 0x32 PUSH1 0x4 MSTORE PUSH1 0x24 PUSH1 0x0 REVERT JUMPDEST PUSH1 0x20 SWAP1 DUP2 MUL SWAP2 SWAP1 SWAP2 ADD ADD MSTORE PUSH1 0x1 DUP2 ADD SLOAD PUSH1 0x1 PUSH1 0xC0 SHL SWAP1 DIV PUSH4 0xFFFFFFFF AND DUP5 PUSH2 0x5FA DUP6 PUSH1 0x2 PUSH2 0x9BD JUMP JUMPDEST DUP2 MLOAD DUP2 LT PUSH2 0x618 JUMPI PUSH4 0x4E487B71 PUSH1 0xE0 SHL PUSH1 0x0 MSTORE PUSH1 0x32 PUSH1 0x4 MSTORE PUSH1 0x24 PUSH1 0x0 REVERT JUMPDEST PUSH1 0x20 SWAP1 DUP2 MUL SWAP2 SWAP1 SWAP2 ADD ADD MSTORE PUSH2 0x62E PUSH1 0x3 DUP5 PUSH2 0x9BD JUMP JUMPDEST SWAP3 POP POP JUMPDEST DUP1 PUSH2 0x63C DUP2 PUSH2 0xA29 JUMP JUMPDEST SWAP2 POP POP PUSH2 0x525 JUMP JUMPDEST POP PUSH1 0x0 DUP2 PUSH8 0xFFFFFFFFFFFFFFFF DUP2 GT ISZERO PUSH2 0x66E JUMPI PUSH4 0x4E487B71 PUSH1 0xE0 SHL PUSH1 0x0 MSTORE PUSH1 0x41 PUSH1 0x4 MSTORE PUSH1 0x24 PUSH1 0x0 REVERT JUMPDEST PUSH1 0x40 MLOAD SWAP1 DUP1 DUP3 MSTORE DUP1 PUSH1 0x20 MUL PUSH1 0x20 ADD DUP3 ADD PUSH1 0x40 MSTORE DUP1 ISZERO PUSH2 0x697 JUMPI DUP2 PUSH1 0x20 ADD PUSH1 0x20 DUP3 MUL DUP1 CALLDATASIZE DUP4 CALLDATACOPY ADD SWAP1 POP JUMPDEST POP SWAP1 POP PUSH1 0x0 JUMPDEST DUP3 DUP2 LT ISZERO PUSH2 0x70A JUMPI DUP4 DUP2 DUP2 MLOAD DUP2 LT PUSH2 0x6C5 JUMPI PUSH4 0x4E487B71 PUSH1 0xE0 SHL PUSH1 0x0 MSTORE PUSH1 0x32 PUSH1 0x4 MSTORE PUSH1 0x24 PUSH1 0x0 REVERT JUMPDEST PUSH1 0x20 MUL PUSH1 0x20 ADD ADD MLOAD DUP3 DUP3 DUP2 MLOAD DUP2 LT PUSH2 0x6ED JUMPI PUSH4 0x4E487B71 PUSH1 0xE0 SHL PUSH1 0x0 MSTORE PUSH1 0x32 PUSH1 0x4 MSTORE PUSH1 0x24 PUSH1 0x0 REVERT JUMPDEST PUSH1 0x20 SWAP1 DUP2 MUL SWAP2 SWAP1 SWAP2 ADD ADD MSTORE DUP1 PUSH2 0x702 DUP2 PUSH2 0xA29 JUMP JUMPDEST SWAP2 POP POP PUSH2 0x69D JUMP JUMPDEST POP SWAP3 POP POP POP SWAP1 JUMP JUMPDEST PUSH1 0x40 DUP1 MLOAD PUSH2 0x160 DUP2 ADD DUP3 MSTORE PUSH1 0x0 DUP1 DUP3 MSTORE PUSH1 0x20 DUP3 ADD DUP2 SWAP1 MSTORE SWAP2 DUP2 ADD DUP3 SWAP1 MSTORE PUSH1 0x60 DUP2 ADD DUP3 SWAP1 MSTORE PUSH1 0x80 DUP2 ADD DUP3 SWAP1 MSTORE PUSH1 0xA0 DUP2 ADD DUP3 SWAP1 MSTORE PUSH1 0xC0 DUP2 ADD DUP3 SWAP1 MSTORE PUSH1 0xE0 DUP2 ADD DUP3 SWAP1 MSTORE PUSH2 0x100 DUP2 ADD DUP3 SWAP1 MSTORE PUSH2 0x120 DUP2 ADD DUP3 SWAP1 MSTORE PUSH2 0x140 DUP2 ADD SWAP2 SWAP1 SWAP2 MSTORE SWAP1 JUMP JUMPDEST DUP1 CALLDATALOAD PUSH4 0xFFFFFFFF DUP2 AND DUP2 EQ PUSH2 0x385 JUMPI PUSH1 0x0 DUP1 REVERT JUMPDEST PUSH1 0x0 PUSH1 0x20 DUP3 DUP5 SUB SLT ISZERO PUSH2 0x793 JUMPI DUP1 DUP2 REVERT JUMPDEST POP CALLDATALOAD SWAP2 SWAP1 POP JUMP JUMPDEST PUSH1 0x0 PUSH1 0x20 DUP3 DUP5 SUB SLT ISZERO PUSH2 0x7AB JUMPI DUP1 DUP2 REVERT JUMPDEST PUSH2 0x7B4 DUP3 PUSH2 0x76E JUMP JUMPDEST SWAP4 SWAP3 POP POP POP JUMP JUMPDEST PUSH1 0x0 DUP1 PUSH1 0x40 DUP4 DUP6 SUB SLT ISZERO PUSH2 0x7CD JUMPI DUP1 DUP2 REVERT JUMPDEST PUSH2 0x7D6 DUP4 PUSH2 0x76E JUMP JUMPDEST SWAP2 POP PUSH2 0x7E4 PUSH1 0x20 DUP5 ADD PUSH2 0x76E JUMP JUMPDEST SWAP1 POP SWAP3 POP SWAP3 SWAP1 POP JUMP JUMPDEST PUSH1 0x1 PUSH1 0x1 PUSH1 0xA0 SHL SUB AND SWAP1 MSTORE JUMP JUMPDEST ISZERO ISZERO SWAP1 MSTORE JUMP JUMPDEST PUSH4 0xFFFFFFFF AND SWAP1 MSTORE JUMP JUMPDEST PUSH1 0x20 DUP1 DUP3 MSTORE DUP3 MLOAD DUP3 DUP3 ADD DUP2 SWAP1 MSTORE PUSH1 0x0 SWAP2 SWAP1 DUP5 DUP3 ADD SWAP1 PUSH1 0x40 DUP6 ADD SWAP1 DUP5 JUMPDEST DUP2 DUP2 LT ISZERO PUSH2 0x842 JUMPI DUP4 MLOAD DUP4 MSTORE SWAP3 DUP5 ADD SWAP3 SWAP2 DUP5 ADD SWAP2 PUSH1 0x1 ADD PUSH2 0x826 JUMP JUMPDEST POP SWAP1 SWAP7 SWAP6 POP POP POP POP POP POP JUMP JUMPDEST PUSH1 0x0 PUSH2 0x160 DUP3 ADD SWAP1 POP PUSH2 0x862 DUP3 DUP5 MLOAD PUSH2 0x800 JUMP JUMPDEST PUSH1 0x20 DUP4 ADD MLOAD PUSH2 0x874 PUSH1 0x20 DUP5 ADD DUP3 PUSH2 0x7ED JUMP JUMPDEST POP PUSH1 0x40 DUP4 ADD MLOAD PUSH2 0x887 PUSH1 0x40 DUP5 ADD DUP3 PUSH2 0x7ED JUMP JUMPDEST POP PUSH1 0x60 DUP4 ADD MLOAD PUSH2 0x89A PUSH1 0x60 DUP5 ADD DUP3 PUSH2 0x800 JUMP JUMPDEST POP PUSH1 0x80 DUP4 ADD MLOAD PUSH2 0x8AD PUSH1 0x80 DUP5 ADD DUP3 PUSH2 0x800 JUMP JUMPDEST POP PUSH1 0xA0 DUP4 ADD MLOAD PUSH1 0xA0 DUP4 ADD MSTORE PUSH1 0xC0 DUP4 ADD MLOAD PUSH1 0xC0 DUP4 ADD MSTORE PUSH1 0xE0 DUP4 ADD MLOAD PUSH2 0x8D4 PUSH1 0xE0 DUP5 ADD DUP3 PUSH2 0x7FA JUMP JUMPDEST POP PUSH2 0x100 DUP1 DUP5 ADD MLOAD PUSH2 0x8E8 DUP3 DUP6 ADD DUP3 PUSH2 0x7FA JUMP JUMPDEST POP POP PUSH2 0x120 DUP1 DUP5 ADD MLOAD PUSH2 0x8FD DUP3 DUP6 ADD DUP3 PUSH2 0x7FA JUMP JUMPDEST POP POP PUSH2 0x140 DUP1 DUP5 ADD MLOAD PUSH2 0x912 DUP3 DUP6 ADD DUP3 PUSH2 0x7FA JUMP JUMPDEST POP POP SWAP3 SWAP2 POP POP JUMP JUMPDEST PUSH4 0xFFFFFFFF SWAP2 SWAP1 SWAP2 AND DUP2 MSTORE PUSH1 0x20 ADD SWAP1 JUMP JUMPDEST PUSH4 0xFFFFFFFF DUP13 DUP2 AND DUP3 MSTORE PUSH1 0x1 PUSH1 0x1 PUSH1 0xA0 SHL SUB DUP13 DUP2 AND PUSH1 0x20 DUP5 ADD MSTORE DUP12 AND PUSH1 0x40 DUP4 ADD MSTORE DUP10 DUP2 AND PUSH1 0x60 DUP4 ADD MSTORE DUP9 AND PUSH1 0x80 DUP3 ADD MSTORE PUSH1 0xA0 DUP2 ADD DUP8 SWAP1 MSTORE PUSH1 0xC0 DUP2 ADD DUP7 SWAP1 MSTORE DUP5 ISZERO ISZERO PUSH1 0xE0 DUP3 ADD MSTORE DUP4 ISZERO ISZERO PUSH2 0x100 DUP3 ADD MSTORE DUP3 ISZERO ISZERO PUSH2 0x120 DUP3 ADD MSTORE PUSH2 0x160 DUP2 ADD PUSH2 0x996 PUSH2 0x140 DUP4 ADD DUP5 PUSH2 0x7FA JUMP JUMPDEST SWAP13 SWAP12 POP POP POP POP POP POP POP POP POP POP POP POP JUMP JUMPDEST PUSH4 0xFFFFFFFF SWAP3 DUP4 AND DUP2 MSTORE SWAP2 AND PUSH1 0x20 DUP3 ADD MSTORE PUSH1 0x40 ADD SWAP1 JUMP JUMPDEST PUSH1 0x0 DUP3 NOT DUP3 GT ISZERO PUSH2 0x9D0 JUMPI PUSH2 0x9D0 PUSH2 0xA44 JUMP JUMPDEST POP ADD SWAP1 JUMP JUMPDEST PUSH1 0x0 PUSH4 0xFFFFFFFF DUP1 DUP4 AND DUP2 DUP6 AND DUP1 DUP4 SUB DUP3 GT ISZERO PUSH2 0x9F4 JUMPI PUSH2 0x9F4 PUSH2 0xA44 JUMP JUMPDEST ADD SWAP5 SWAP4 POP POP POP POP JUMP JUMPDEST PUSH1 0x0 PUSH4 0xFFFFFFFF DUP1 DUP4 AND DUP2 DUP6 AND DUP2 DUP4 DIV DUP2 GT DUP3 ISZERO ISZERO AND ISZERO PUSH2 0xA20 JUMPI PUSH2 0xA20 PUSH2 0xA44 JUMP JUMPDEST MUL SWAP5 SWAP4 POP POP POP POP JUMP JUMPDEST PUSH1 0x0 PUSH1 0x0 NOT DUP3 EQ ISZERO PUSH2 0xA3D JUMPI PUSH2 0xA3D PUSH2 0xA44 JUMP JUMPDEST POP PUSH1 0x1 ADD SWAP1 JUMP JUMPDEST PUSH4 0x4E487B71 PUSH1 0xE0 SHL PUSH1 0x0 MSTORE PUSH1 0x11 PUSH1 0x4 MSTORE PUSH1 0x24 PUSH1 0x0 REVERT INVALID LOG2 PUSH5 0x6970667358 0x22 SLT KECCAK256 0xE5 0xEA 0xB9 0xE7 RETURNDATACOPY EXTCODEHASH 0xB6 SAR PUSH5 0xD0B956094D 0xD7 PUSH5 0x72C303C312 0xC4 0xD2 0xEB CHAINID DUP9 0xDE 0xD9 CALLVALUE 0x1E GASPRICE 0x49 PUSH5 0x736F6C6343 STOP ADDMOD STOP STOP CALLER ",
  "sha1": "1d6a69d5114eade6f022ae81743f9e22bcfd8507",
  "source": "// SPDX-License-Identifier: GPL-3.0\n\n//pragma solidity >=0.8.0 <0.8.15;\npragma solidity ^0.8.0;\n\npragma experimental ABIEncoderV2;\n\ncontract EnergyTrade {\n    struct Offer {\n        uint32 ID;\n        address seller;\n        address buyer;\n        //string Hash_S2B;\n        //string Hash_B2S;\n        uint32 energy;\n        uint32 price;\n        uint256 OfferedTime;\n        uint256 S2BPaidTime;\n        bool choosed;\n        bool confirm_buyer;\n        bool confirm_seller;\n        bool delivered;\n        // uint256 startTimestamp;\n        //uint256 endTimestamp;\n    }\n    mapping(uint256 => Offer) public offers;\n    uint32 public offerID;\n    uint256 count;\n    uint256[] data;\n    uint256[] dataList;\n\n    function addOffer(uint32 energy, uint32 price) public {\n        //require(_startTimestamp < _endTimestamp, \"Invalid timestamp range\");\n        Offer storage newOffer = offers[offerID];\n        newOffer.ID = offerID;\n        newOffer.seller = msg.sender;\n        newOffer.energy = energy;\n        newOffer.price = price;\n        newOffer.OfferedTime = block.timestamp;\n        newOffer.choosed = false;\n        newOffer.confirm_buyer = false;\n        newOffer.confirm_seller = false;\n        newOffer.delivered = false;\n        offerID += 1;\n    }\n\n    function ChooseOffer(uint32 id) public {\n        offers[id].choosed = true;\n    }\n\n    //function confirmTx_S2B(uint32 id, string Hash_S2B) public {\n    function confirmTx_S2B(uint32 id) public {\n        offers[id].confirm_buyer = true;\n        //offers[id].Hash_S2B = Hash_S2B;\n        offers[id].buyer = msg.sender;\n        offers[id].S2BPaidTime = block.timestamp;\n    }\n\n    function finalDelivery(uint32 id) public {\n        offers[id].delivered = true;\n    }\n\n    //function confirmTx_B2S(uint32 id, string Hash_B2S) public {\n    function confirmTx_B2S(uint32 id) public {\n        offers[id].confirm_seller = true;\n        //offers[id].Hash_B2S = Hash_B2S;\n    }\n\n    function retreive_offer_by_id(\n        uint32 id\n    ) public view returns (uint32, uint32) {\n        Offer storage derivedOffer = offers[id];\n        return (derivedOffer.energy, derivedOffer.price);\n    }\n\n    function retreive_final_details(\n        uint32 id\n    ) public view returns (Offer memory) {\n        return offers[id];\n    }\n\n    /*\n    function addElements(uint32 id) public view returns(uint[] ) {\n        Offer storage derivedOffer = offers[id];\n        data.push(derivedOffer.energy);\n        data.push(derivedOffer.price);\n        return (data);\n    }  \n\n    function listOffers() public returns (uint256[] memory) {\n        for (uint256 i = 0; i < offerID; i++) {\n            if (offers[i].delivered == false) {\n                Offer storage derivedOffer = offers[i];\n                dataList.push(i);\n                dataList.push(derivedOffer.energy);\n                dataList.push(derivedOffer.price);\n            }\n        }\n        return (dataList);\n    }\n*/\n    function getOfferData() internal view returns (uint256[] memory) {\n        uint256[] memory dataList = new uint256[](offerID * 3); // allocate memory for maximum possible size\n        uint256 dataIndex = 0;\n        for (uint256 i = 0; i < offerID; i++) {\n            if (!offers[i].delivered) {\n                Offer storage derivedOffer = offers[i];\n                dataList[dataIndex] = i;\n                dataList[dataIndex + 1] = derivedOffer.energy;\n                dataList[dataIndex + 2] = derivedOffer.price;\n                dataIndex += 3;\n            }\n        }\n        // Trim the dataList array to the actual size\n        uint256[] memory trimmedData = new uint256[](dataIndex);\n        for (uint256 i = 0; i < dataIndex; i++) {\n            trimmedData[i] = dataList[i];\n        }\n        return trimmedData;\n    }\n\n    function listOffers() public view returns (uint256[] memory) {\n        return getOfferData();\n    }\n}\n",
  "sourcePath": "contracts/trading.sol",
  "type": "contract"
}